{
  "_format": "hh-sol-artifact-1",
  "contractName": "BorrowYourCar",
  "sourceName": "contracts/BorrowYourCar.sol",
  "abi": [
    {
      "inputs": [
        {
          "internalType": "string",
          "name": "name_",
          "type": "string"
        },
        {
          "internalType": "string",
          "name": "symbol_",
          "type": "string"
        }
      ],
      "stateMutability": "nonpayable",
      "type": "constructor"
    },
    {
      "inputs": [
        {
          "internalType": "address",
          "name": "sender",
          "type": "address"
        },
        {
          "internalType": "uint256",
          "name": "tokenId",
          "type": "uint256"
        },
        {
          "internalType": "address",
          "name": "owner",
          "type": "address"
        }
      ],
      "name": "ERC721IncorrectOwner",
      "type": "error"
    },
    {
      "inputs": [
        {
          "internalType": "address",
          "name": "operator",
          "type": "address"
        },
        {
          "internalType": "uint256",
          "name": "tokenId",
          "type": "uint256"
        }
      ],
      "name": "ERC721InsufficientApproval",
      "type": "error"
    },
    {
      "inputs": [
        {
          "internalType": "address",
          "name": "approver",
          "type": "address"
        }
      ],
      "name": "ERC721InvalidApprover",
      "type": "error"
    },
    {
      "inputs": [
        {
          "internalType": "address",
          "name": "operator",
          "type": "address"
        }
      ],
      "name": "ERC721InvalidOperator",
      "type": "error"
    },
    {
      "inputs": [
        {
          "internalType": "address",
          "name": "owner",
          "type": "address"
        }
      ],
      "name": "ERC721InvalidOwner",
      "type": "error"
    },
    {
      "inputs": [
        {
          "internalType": "address",
          "name": "receiver",
          "type": "address"
        }
      ],
      "name": "ERC721InvalidReceiver",
      "type": "error"
    },
    {
      "inputs": [
        {
          "internalType": "address",
          "name": "sender",
          "type": "address"
        }
      ],
      "name": "ERC721InvalidSender",
      "type": "error"
    },
    {
      "inputs": [
        {
          "internalType": "uint256",
          "name": "tokenId",
          "type": "uint256"
        }
      ],
      "name": "ERC721NonexistentToken",
      "type": "error"
    },
    {
      "anonymous": false,
      "inputs": [
        {
          "indexed": true,
          "internalType": "address",
          "name": "owner",
          "type": "address"
        },
        {
          "indexed": true,
          "internalType": "address",
          "name": "approved",
          "type": "address"
        },
        {
          "indexed": true,
          "internalType": "uint256",
          "name": "tokenId",
          "type": "uint256"
        }
      ],
      "name": "Approval",
      "type": "event"
    },
    {
      "anonymous": false,
      "inputs": [
        {
          "indexed": true,
          "internalType": "address",
          "name": "owner",
          "type": "address"
        },
        {
          "indexed": true,
          "internalType": "address",
          "name": "operator",
          "type": "address"
        },
        {
          "indexed": false,
          "internalType": "bool",
          "name": "approved",
          "type": "bool"
        }
      ],
      "name": "ApprovalForAll",
      "type": "event"
    },
    {
      "anonymous": false,
      "inputs": [
        {
          "indexed": false,
          "internalType": "uint256",
          "name": "carTokenId",
          "type": "uint256"
        },
        {
          "indexed": false,
          "internalType": "address",
          "name": "borrower",
          "type": "address"
        },
        {
          "indexed": false,
          "internalType": "uint256",
          "name": "startTime",
          "type": "uint256"
        },
        {
          "indexed": false,
          "internalType": "uint256",
          "name": "duration",
          "type": "uint256"
        }
      ],
      "name": "CarBorrowed",
      "type": "event"
    },
    {
      "anonymous": false,
      "inputs": [
        {
          "indexed": true,
          "internalType": "address",
          "name": "from",
          "type": "address"
        },
        {
          "indexed": true,
          "internalType": "address",
          "name": "to",
          "type": "address"
        },
        {
          "indexed": true,
          "internalType": "uint256",
          "name": "tokenId",
          "type": "uint256"
        }
      ],
      "name": "Transfer",
      "type": "event"
    },
    {
      "inputs": [
        {
          "internalType": "address",
          "name": "to",
          "type": "address"
        },
        {
          "internalType": "uint256",
          "name": "tokenId",
          "type": "uint256"
        }
      ],
      "name": "approve",
      "outputs": [],
      "stateMutability": "nonpayable",
      "type": "function"
    },
    {
      "inputs": [
        {
          "internalType": "address",
          "name": "owner",
          "type": "address"
        }
      ],
      "name": "balanceOf",
      "outputs": [
        {
          "internalType": "uint256",
          "name": "",
          "type": "uint256"
        }
      ],
      "stateMutability": "view",
      "type": "function"
    },
    {
      "inputs": [
        {
          "internalType": "uint256",
          "name": "tokenId",
          "type": "uint256"
        },
        {
          "internalType": "address",
          "name": "user",
          "type": "address"
        },
        {
          "internalType": "uint64",
          "name": "expires",
          "type": "uint64"
        }
      ],
      "name": "borrowCar",
      "outputs": [],
      "stateMutability": "nonpayable",
      "type": "function"
    },
    {
      "inputs": [
        {
          "internalType": "uint256",
          "name": "",
          "type": "uint256"
        }
      ],
      "name": "cars",
      "outputs": [
        {
          "internalType": "address",
          "name": "owner",
          "type": "address"
        },
        {
          "internalType": "address",
          "name": "borrower",
          "type": "address"
        },
        {
          "internalType": "uint256",
          "name": "borrowUntil",
          "type": "uint256"
        }
      ],
      "stateMutability": "view",
      "type": "function"
    },
    {
      "inputs": [
        {
          "internalType": "uint256",
          "name": "tokenId",
          "type": "uint256"
        }
      ],
      "name": "getApproved",
      "outputs": [
        {
          "internalType": "address",
          "name": "",
          "type": "address"
        }
      ],
      "stateMutability": "view",
      "type": "function"
    },
    {
      "inputs": [],
      "name": "getAvailableCars",
      "outputs": [
        {
          "internalType": "uint256[]",
          "name": "",
          "type": "uint256[]"
        }
      ],
      "stateMutability": "view",
      "type": "function"
    },
    {
      "inputs": [
        {
          "internalType": "uint256",
          "name": "tokenId",
          "type": "uint256"
        }
      ],
      "name": "getBorrowUtil",
      "outputs": [
        {
          "internalType": "uint256",
          "name": "",
          "type": "uint256"
        }
      ],
      "stateMutability": "view",
      "type": "function"
    },
    {
      "inputs": [
        {
          "internalType": "uint256",
          "name": "tokenId",
          "type": "uint256"
        }
      ],
      "name": "getOwner",
      "outputs": [
        {
          "internalType": "address",
          "name": "",
          "type": "address"
        }
      ],
      "stateMutability": "view",
      "type": "function"
    },
    {
      "inputs": [
        {
          "internalType": "uint256",
          "name": "tokenId",
          "type": "uint256"
        }
      ],
      "name": "getUser",
      "outputs": [
        {
          "internalType": "address",
          "name": "",
          "type": "address"
        }
      ],
      "stateMutability": "view",
      "type": "function"
    },
    {
      "inputs": [
        {
          "internalType": "address",
          "name": "owner",
          "type": "address"
        }
      ],
      "name": "getUserCars",
      "outputs": [
        {
          "internalType": "uint256[]",
          "name": "",
          "type": "uint256[]"
        }
      ],
      "stateMutability": "view",
      "type": "function"
    },
    {
      "inputs": [
        {
          "internalType": "address",
          "name": "owner",
          "type": "address"
        },
        {
          "internalType": "address",
          "name": "operator",
          "type": "address"
        }
      ],
      "name": "isApprovedForAll",
      "outputs": [
        {
          "internalType": "bool",
          "name": "",
          "type": "bool"
        }
      ],
      "stateMutability": "view",
      "type": "function"
    },
    {
      "inputs": [
        {
          "internalType": "uint256",
          "name": "tokenId",
          "type": "uint256"
        },
        {
          "internalType": "address",
          "name": "owner",
          "type": "address"
        }
      ],
      "name": "mint",
      "outputs": [],
      "stateMutability": "nonpayable",
      "type": "function"
    },
    {
      "inputs": [],
      "name": "name",
      "outputs": [
        {
          "internalType": "string",
          "name": "",
          "type": "string"
        }
      ],
      "stateMutability": "view",
      "type": "function"
    },
    {
      "inputs": [
        {
          "internalType": "uint256",
          "name": "tokenId",
          "type": "uint256"
        }
      ],
      "name": "ownerOf",
      "outputs": [
        {
          "internalType": "address",
          "name": "",
          "type": "address"
        }
      ],
      "stateMutability": "view",
      "type": "function"
    },
    {
      "inputs": [
        {
          "internalType": "address",
          "name": "from",
          "type": "address"
        },
        {
          "internalType": "address",
          "name": "to",
          "type": "address"
        },
        {
          "internalType": "uint256",
          "name": "tokenId",
          "type": "uint256"
        }
      ],
      "name": "safeTransferFrom",
      "outputs": [],
      "stateMutability": "nonpayable",
      "type": "function"
    },
    {
      "inputs": [
        {
          "internalType": "address",
          "name": "from",
          "type": "address"
        },
        {
          "internalType": "address",
          "name": "to",
          "type": "address"
        },
        {
          "internalType": "uint256",
          "name": "tokenId",
          "type": "uint256"
        },
        {
          "internalType": "bytes",
          "name": "data",
          "type": "bytes"
        }
      ],
      "name": "safeTransferFrom",
      "outputs": [],
      "stateMutability": "nonpayable",
      "type": "function"
    },
    {
      "inputs": [
        {
          "internalType": "address",
          "name": "operator",
          "type": "address"
        },
        {
          "internalType": "bool",
          "name": "approved",
          "type": "bool"
        }
      ],
      "name": "setApprovalForAll",
      "outputs": [],
      "stateMutability": "nonpayable",
      "type": "function"
    },
    {
      "inputs": [
        {
          "internalType": "bytes4",
          "name": "interfaceId",
          "type": "bytes4"
        }
      ],
      "name": "supportsInterface",
      "outputs": [
        {
          "internalType": "bool",
          "name": "",
          "type": "bool"
        }
      ],
      "stateMutability": "view",
      "type": "function"
    },
    {
      "inputs": [],
      "name": "symbol",
      "outputs": [
        {
          "internalType": "string",
          "name": "",
          "type": "string"
        }
      ],
      "stateMutability": "view",
      "type": "function"
    },
    {
      "inputs": [
        {
          "internalType": "uint256",
          "name": "tokenId",
          "type": "uint256"
        }
      ],
      "name": "tokenURI",
      "outputs": [
        {
          "internalType": "string",
          "name": "",
          "type": "string"
        }
      ],
      "stateMutability": "view",
      "type": "function"
    },
    {
      "inputs": [
        {
          "internalType": "address",
          "name": "from",
          "type": "address"
        },
        {
          "internalType": "address",
          "name": "to",
          "type": "address"
        },
        {
          "internalType": "uint256",
          "name": "tokenId",
          "type": "uint256"
        }
      ],
      "name": "transferFrom",
      "outputs": [],
      "stateMutability": "nonpayable",
      "type": "function"
    },
    {
      "inputs": [
        {
          "internalType": "uint256",
          "name": "tokenId",
          "type": "uint256"
        }
      ],
      "name": "userOf",
      "outputs": [
        {
          "internalType": "address",
          "name": "",
          "type": "address"
        }
      ],
      "stateMutability": "view",
      "type": "function"
    }
  ],
  "bytecode": "0x60806040523480156200001157600080fd5b50604051620038a3380380620038a3833981810160405281019062000037919062000bac565b818181600090816200004a919062000e7c565b5080600190816200005c919062000e7c565b50505062000086600073de21c4f130ab2036d552bc63c22a8012fc2c55c1620000dc60201b60201c565b620000ad600173de21c4f130ab2036d552bc63c22a8012fc2c55c1620000dc60201b60201c565b620000d460027316eddb83b0b733bae796e04992ed0671cd977d83620000dc60201b60201c565b505062001020565b620000ee8183620001b960201b60201c565b806006600084815260200190815260200160002060000160006101000a81548173ffffffffffffffffffffffffffffffffffffffff021916908373ffffffffffffffffffffffffffffffffffffffff16021790555060006006600084815260200190815260200160002060010160006101000a81548173ffffffffffffffffffffffffffffffffffffffff021916908373ffffffffffffffffffffffffffffffffffffffff160217905550600060066000848152602001908152602001600020600201819055505050565b600073ffffffffffffffffffffffffffffffffffffffff168273ffffffffffffffffffffffffffffffffffffffff16036200022e5760006040517f64a0ae9200000000000000000000000000000000000000000000000000000000815260040162000225919062000fa8565b60405180910390fd5b60006200024483836000620002c060201b60201c565b9050600073ffffffffffffffffffffffffffffffffffffffff168173ffffffffffffffffffffffffffffffffffffffff1614620002bb5760006040517f73c6ac6e000000000000000000000000000000000000000000000000000000008152600401620002b2919062000fa8565b60405180910390fd5b505050565b600080620002d484620004f560201b60201c565b9050600073ffffffffffffffffffffffffffffffffffffffff168373ffffffffffffffffffffffffffffffffffffffff16146200031f576200031e8184866200053260201b60201c565b5b600073ffffffffffffffffffffffffffffffffffffffff168173ffffffffffffffffffffffffffffffffffffffff1614620003b9576200036a6000856000806200060460201b60201c565b6001600360008373ffffffffffffffffffffffffffffffffffffffff1673ffffffffffffffffffffffffffffffffffffffff168152602001908152602001600020600082825403925050819055505b600073ffffffffffffffffffffffffffffffffffffffff168573ffffffffffffffffffffffffffffffffffffffff16146200043d576001600360008773ffffffffffffffffffffffffffffffffffffffff1673ffffffffffffffffffffffffffffffffffffffff168152602001908152602001600020600082825401925050819055505b846002600086815260200190815260200160002060006101000a81548173ffffffffffffffffffffffffffffffffffffffff021916908373ffffffffffffffffffffffffffffffffffffffff160217905550838573ffffffffffffffffffffffffffffffffffffffff168273ffffffffffffffffffffffffffffffffffffffff167fddf252ad1be2c89b69c2b068fc378daa952ba7f163c4a11628f55a4df523b3ef60405160405180910390a4809150509392505050565b60006002600083815260200190815260200160002060009054906101000a900473ffffffffffffffffffffffffffffffffffffffff169050919050565b62000545838383620007e160201b60201c565b620005ff57600073ffffffffffffffffffffffffffffffffffffffff168373ffffffffffffffffffffffffffffffffffffffff1603620005be57806040517f7e273289000000000000000000000000000000000000000000000000000000008152600401620005b5919062000fd6565b60405180910390fd5b81816040517f177e802f000000000000000000000000000000000000000000000000000000008152600401620005f692919062000ff3565b60405180910390fd5b505050565b80806200063e5750600073ffffffffffffffffffffffffffffffffffffffff168273ffffffffffffffffffffffffffffffffffffffff1614155b15620007895760006200065784620008b560201b60201c565b9050600073ffffffffffffffffffffffffffffffffffffffff168373ffffffffffffffffffffffffffffffffffffffff1614158015620006c357508273ffffffffffffffffffffffffffffffffffffffff168173ffffffffffffffffffffffffffffffffffffffff1614155b8015620006df5750620006dd81846200094860201b60201c565b155b156200072457826040517fa9fbf51f0000000000000000000000000000000000000000000000000000000081526004016200071b919062000fa8565b60405180910390fd5b81156200078757838573ffffffffffffffffffffffffffffffffffffffff168273ffffffffffffffffffffffffffffffffffffffff167f8c5be1e5ebec7d5bd14f71427d1e84f3dd0314c0f7b2291e5b200ac8c7c3b92560405160405180910390a45b505b836004600085815260200190815260200160002060006101000a81548173ffffffffffffffffffffffffffffffffffffffff021916908373ffffffffffffffffffffffffffffffffffffffff16021790555050505050565b60008073ffffffffffffffffffffffffffffffffffffffff168373ffffffffffffffffffffffffffffffffffffffff1614158015620008ac57508273ffffffffffffffffffffffffffffffffffffffff168473ffffffffffffffffffffffffffffffffffffffff1614806200086457506200086384846200094860201b60201c565b5b80620008ab57508273ffffffffffffffffffffffffffffffffffffffff166200089383620009dc60201b60201c565b73ffffffffffffffffffffffffffffffffffffffff16145b5b90509392505050565b600080620008c983620004f560201b60201c565b9050600073ffffffffffffffffffffffffffffffffffffffff168173ffffffffffffffffffffffffffffffffffffffff16036200093f57826040517f7e27328900000000000000000000000000000000000000000000000000000000815260040162000936919062000fd6565b60405180910390fd5b80915050919050565b6000600560008473ffffffffffffffffffffffffffffffffffffffff1673ffffffffffffffffffffffffffffffffffffffff16815260200190815260200160002060008373ffffffffffffffffffffffffffffffffffffffff1673ffffffffffffffffffffffffffffffffffffffff16815260200190815260200160002060009054906101000a900460ff16905092915050565b60006004600083815260200190815260200160002060009054906101000a900473ffffffffffffffffffffffffffffffffffffffff169050919050565b6000604051905090565b600080fd5b600080fd5b600080fd5b600080fd5b6000601f19601f8301169050919050565b7f4e487b7100000000000000000000000000000000000000000000000000000000600052604160045260246000fd5b62000a828262000a37565b810181811067ffffffffffffffff8211171562000aa45762000aa362000a48565b5b80604052505050565b600062000ab962000a19565b905062000ac7828262000a77565b919050565b600067ffffffffffffffff82111562000aea5762000ae962000a48565b5b62000af58262000a37565b9050602081019050919050565b60005b8381101562000b2257808201518184015260208101905062000b05565b60008484015250505050565b600062000b4562000b3f8462000acc565b62000aad565b90508281526020810184848401111562000b645762000b6362000a32565b5b62000b7184828562000b02565b509392505050565b600082601f83011262000b915762000b9062000a2d565b5b815162000ba384826020860162000b2e565b91505092915050565b6000806040838503121562000bc65762000bc562000a23565b5b600083015167ffffffffffffffff81111562000be75762000be662000a28565b5b62000bf58582860162000b79565b925050602083015167ffffffffffffffff81111562000c195762000c1862000a28565b5b62000c278582860162000b79565b9150509250929050565b600081519050919050565b7f4e487b7100000000000000000000000000000000000000000000000000000000600052602260045260246000fd5b6000600282049050600182168062000c8457607f821691505b60208210810362000c9a5762000c9962000c3c565b5b50919050565b60008190508160005260206000209050919050565b60006020601f8301049050919050565b600082821b905092915050565b60006008830262000d047fffffffffffffffffffffffffffffffffffffffffffffffffffffffffffffffff8262000cc5565b62000d10868362000cc5565b95508019841693508086168417925050509392505050565b6000819050919050565b6000819050919050565b600062000d5d62000d5762000d518462000d28565b62000d32565b62000d28565b9050919050565b6000819050919050565b62000d798362000d3c565b62000d9162000d888262000d64565b84845462000cd2565b825550505050565b600090565b62000da862000d99565b62000db581848462000d6e565b505050565b5b8181101562000ddd5762000dd160008262000d9e565b60018101905062000dbb565b5050565b601f82111562000e2c5762000df68162000ca0565b62000e018462000cb5565b8101602085101562000e11578190505b62000e2962000e208562000cb5565b83018262000dba565b50505b505050565b600082821c905092915050565b600062000e516000198460080262000e31565b1980831691505092915050565b600062000e6c838362000e3e565b9150826002028217905092915050565b62000e878262000c31565b67ffffffffffffffff81111562000ea35762000ea262000a48565b5b62000eaf825462000c6b565b62000ebc82828562000de1565b600060209050601f83116001811462000ef4576000841562000edf578287015190505b62000eeb858262000e5e565b86555062000f5b565b601f19841662000f048662000ca0565b60005b8281101562000f2e5784890151825560018201915060208501945060208101905062000f07565b8683101562000f4e578489015162000f4a601f89168262000e3e565b8355505b6001600288020188555050505b505050505050565b600073ffffffffffffffffffffffffffffffffffffffff82169050919050565b600062000f908262000f63565b9050919050565b62000fa28162000f83565b82525050565b600060208201905062000fbf600083018462000f97565b92915050565b62000fd08162000d28565b82525050565b600060208201905062000fed600083018462000fc5565b92915050565b60006040820190506200100a600083018562000f97565b62001019602083018462000fc5565b9392505050565b61287380620010306000396000f3fe608060405234801561001057600080fd5b50600436106101425760003560e01c806395d89b41116100b8578063c2f1f14a1161007c578063c2f1f14a14610399578063c41a360a146103c9578063c87b56dd146103f9578063c9dcaeb714610429578063e985e9c514610445578063f7746e361461047557610142565b806395d89b41146102e3578063a22cb46514610301578063b0467deb1461031d578063b88d4fde1461034d578063b91d16d91461036957610142565b80632698286c1161010a5780632698286c146101fd57806342842e0e1461022d578063433b8046146102495780636352211e1461026757806370a082311461029757806394bf804d146102c757610142565b806301ffc9a71461014757806306fdde0314610177578063081812fc14610195578063095ea7b3146101c557806323b872dd146101e1575b600080fd5b610161600480360381019061015c9190611d79565b6104a7565b60405161016e9190611dc1565b60405180910390f35b61017f610589565b60405161018c9190611e6c565b60405180910390f35b6101af60048036038101906101aa9190611ec4565b61061b565b6040516101bc9190611f32565b60405180910390f35b6101df60048036038101906101da9190611f79565b610637565b005b6101fb60048036038101906101f69190611fb9565b61064d565b005b6102176004803603810190610212919061200c565b61074f565b60405161022491906120f7565b60405180910390f35b61024760048036038101906102429190611fb9565b6108fb565b005b61025161091b565b60405161025e91906120f7565b60405180910390f35b610281600480360381019061027c9190611ec4565b610a6b565b60405161028e9190611f32565b60405180910390f35b6102b160048036038101906102ac919061200c565b610a7d565b6040516102be9190612128565b60405180910390f35b6102e160048036038101906102dc9190612143565b610b37565b005b6102eb610c0c565b6040516102f89190611e6c565b60405180910390f35b61031b600480360381019061031691906121af565b610c9e565b005b61033760048036038101906103329190611ec4565b610cb4565b6040516103449190611f32565b60405180910390f35b61036760048036038101906103629190612324565b610cc6565b005b610383600480360381019061037e9190611ec4565b610ce3565b6040516103909190612128565b60405180910390f35b6103b360048036038101906103ae9190611ec4565b610d03565b6040516103c09190611f32565b60405180910390f35b6103e360048036038101906103de9190611ec4565b610d6a565b6040516103f09190611f32565b60405180910390f35b610413600480360381019061040e9190611ec4565b610daa565b6040516104209190611e6c565b60405180910390f35b610443600480360381019061043e91906123e7565b610e13565b005b61045f600480360381019061045a919061243a565b610ece565b60405161046c9190611dc1565b60405180910390f35b61048f600480360381019061048a9190611ec4565b610f62565b60405161049e9392919061247a565b60405180910390f35b60007f80ac58cd000000000000000000000000000000000000000000000000000000007bffffffffffffffffffffffffffffffffffffffffffffffffffffffff1916827bffffffffffffffffffffffffffffffffffffffffffffffffffffffff1916148061057257507f5b5e139f000000000000000000000000000000000000000000000000000000007bffffffffffffffffffffffffffffffffffffffffffffffffffffffff1916827bffffffffffffffffffffffffffffffffffffffffffffffffffffffff1916145b80610582575061058182610fcc565b5b9050919050565b606060008054610598906124e0565b80601f01602080910402602001604051908101604052809291908181526020018280546105c4906124e0565b80156106115780601f106105e657610100808354040283529160200191610611565b820191906000526020600020905b8154815290600101906020018083116105f457829003601f168201915b5050505050905090565b600061062682611036565b50610630826110be565b9050919050565b61064982826106446110fb565b611103565b5050565b600073ffffffffffffffffffffffffffffffffffffffff168273ffffffffffffffffffffffffffffffffffffffff16036106bf5760006040517f64a0ae920000000000000000000000000000000000000000000000000000000081526004016106b69190611f32565b60405180910390fd5b60006106d383836106ce6110fb565b611115565b90508373ffffffffffffffffffffffffffffffffffffffff168173ffffffffffffffffffffffffffffffffffffffff1614610749578382826040517f64283d7b00000000000000000000000000000000000000000000000000000000815260040161074093929190612511565b60405180910390fd5b50505050565b60606000805b60058110156107e9578373ffffffffffffffffffffffffffffffffffffffff166006600083815260200190815260200160002060000160009054906101000a900473ffffffffffffffffffffffffffffffffffffffff1673ffffffffffffffffffffffffffffffffffffffff16036107d65781806107d290612577565b9250505b80806107e190612577565b915050610755565b5060008167ffffffffffffffff811115610806576108056121f9565b5b6040519080825280602002602001820160405280156108345781602001602082028036833780820191505090505b5090506000805b60058110156108ef578573ffffffffffffffffffffffffffffffffffffffff166006600083815260200190815260200160002060000160009054906101000a900473ffffffffffffffffffffffffffffffffffffffff1673ffffffffffffffffffffffffffffffffffffffff16036108dc57808383815181106108c1576108c06125bf565b5b60200260200101818152505081806108d890612577565b9250505b80806108e790612577565b91505061083b565b50819350505050919050565b61091683838360405180602001604052806000815250610cc6565b505050565b60606000805b600581101561098857600073ffffffffffffffffffffffffffffffffffffffff1661094b82610d03565b73ffffffffffffffffffffffffffffffffffffffff160361097557818061097190612577565b9250505b808061098090612577565b915050610921565b5060008167ffffffffffffffff8111156109a5576109a46121f9565b5b6040519080825280602002602001820160405280156109d35781602001602082028036833780820191505090505b5090506000805b6005811015610a6157600073ffffffffffffffffffffffffffffffffffffffff16610a0482610d03565b73ffffffffffffffffffffffffffffffffffffffff1603610a4e5780838381518110610a3357610a326125bf565b5b6020026020010181815250508180610a4a90612577565b9250505b8080610a5990612577565b9150506109da565b5081935050505090565b6000610a7682611036565b9050919050565b60008073ffffffffffffffffffffffffffffffffffffffff168273ffffffffffffffffffffffffffffffffffffffff1603610af05760006040517f89c62b64000000000000000000000000000000000000000000000000000000008152600401610ae79190611f32565b60405180910390fd5b600360008373ffffffffffffffffffffffffffffffffffffffff1673ffffffffffffffffffffffffffffffffffffffff168152602001908152602001600020549050919050565b610b41818361132f565b806006600084815260200190815260200160002060000160006101000a81548173ffffffffffffffffffffffffffffffffffffffff021916908373ffffffffffffffffffffffffffffffffffffffff16021790555060006006600084815260200190815260200160002060010160006101000a81548173ffffffffffffffffffffffffffffffffffffffff021916908373ffffffffffffffffffffffffffffffffffffffff160217905550600060066000848152602001908152602001600020600201819055505050565b606060018054610c1b906124e0565b80601f0160208091040260200160405190810160405280929190818152602001828054610c47906124e0565b8015610c945780601f10610c6957610100808354040283529160200191610c94565b820191906000526020600020905b815481529060010190602001808311610c7757829003601f168201915b5050505050905090565b610cb0610ca96110fb565b8383611428565b5050565b6000610cbf82610d03565b9050919050565b610cd184848461064d565b610cdd84848484611597565b50505050565b600060066000838152602001908152602001600020600201549050919050565b600042600660008481526020019081526020016000206002015410610d60576006600083815260200190815260200160002060010160009054906101000a900473ffffffffffffffffffffffffffffffffffffffff169050610d65565b600090505b919050565b60006006600083815260200190815260200160002060000160009054906101000a900473ffffffffffffffffffffffffffffffffffffffff169050919050565b6060610db582611036565b506000610dc061174e565b90506000815111610de05760405180602001604052806000815250610e0b565b80610dea84611765565b604051602001610dfb92919061262a565b6040516020818303038152906040525b915050919050565b6000600660008581526020019081526020016000209050828160010160006101000a81548173ffffffffffffffffffffffffffffffffffffffff021916908373ffffffffffffffffffffffffffffffffffffffff1602179055508167ffffffffffffffff1642610e83919061264e565b81600201819055507f8879d78706834dc00d82232992f71250fab6a1f70b08260968253950083d88cd84844285604051610ec094939291906126bd565b60405180910390a150505050565b6000600560008473ffffffffffffffffffffffffffffffffffffffff1673ffffffffffffffffffffffffffffffffffffffff16815260200190815260200160002060008373ffffffffffffffffffffffffffffffffffffffff1673ffffffffffffffffffffffffffffffffffffffff16815260200190815260200160002060009054906101000a900460ff16905092915050565b60066020528060005260406000206000915090508060000160009054906101000a900473ffffffffffffffffffffffffffffffffffffffff16908060010160009054906101000a900473ffffffffffffffffffffffffffffffffffffffff16908060020154905083565b60007f01ffc9a7000000000000000000000000000000000000000000000000000000007bffffffffffffffffffffffffffffffffffffffffffffffffffffffff1916827bffffffffffffffffffffffffffffffffffffffffffffffffffffffff1916149050919050565b60008061104283611833565b9050600073ffffffffffffffffffffffffffffffffffffffff168173ffffffffffffffffffffffffffffffffffffffff16036110b557826040517f7e2732890000000000000000000000000000000000000000000000000000000081526004016110ac9190612128565b60405180910390fd5b80915050919050565b60006004600083815260200190815260200160002060009054906101000a900473ffffffffffffffffffffffffffffffffffffffff169050919050565b600033905090565b6111108383836001611870565b505050565b60008061112184611833565b9050600073ffffffffffffffffffffffffffffffffffffffff168373ffffffffffffffffffffffffffffffffffffffff161461116357611162818486611a35565b5b600073ffffffffffffffffffffffffffffffffffffffff168173ffffffffffffffffffffffffffffffffffffffff16146111f4576111a5600085600080611870565b6001600360008373ffffffffffffffffffffffffffffffffffffffff1673ffffffffffffffffffffffffffffffffffffffff168152602001908152602001600020600082825403925050819055505b600073ffffffffffffffffffffffffffffffffffffffff168573ffffffffffffffffffffffffffffffffffffffff1614611277576001600360008773ffffffffffffffffffffffffffffffffffffffff1673ffffffffffffffffffffffffffffffffffffffff168152602001908152602001600020600082825401925050819055505b846002600086815260200190815260200160002060006101000a81548173ffffffffffffffffffffffffffffffffffffffff021916908373ffffffffffffffffffffffffffffffffffffffff160217905550838573ffffffffffffffffffffffffffffffffffffffff168273ffffffffffffffffffffffffffffffffffffffff167fddf252ad1be2c89b69c2b068fc378daa952ba7f163c4a11628f55a4df523b3ef60405160405180910390a4809150509392505050565b600073ffffffffffffffffffffffffffffffffffffffff168273ffffffffffffffffffffffffffffffffffffffff16036113a15760006040517f64a0ae920000000000000000000000000000000000000000000000000000000081526004016113989190611f32565b60405180910390fd5b60006113af83836000611115565b9050600073ffffffffffffffffffffffffffffffffffffffff168173ffffffffffffffffffffffffffffffffffffffff16146114235760006040517f73c6ac6e00000000000000000000000000000000000000000000000000000000815260040161141a9190611f32565b60405180910390fd5b505050565b600073ffffffffffffffffffffffffffffffffffffffff168273ffffffffffffffffffffffffffffffffffffffff160361149957816040517f5b08ba180000000000000000000000000000000000000000000000000000000081526004016114909190611f32565b60405180910390fd5b80600560008573ffffffffffffffffffffffffffffffffffffffff1673ffffffffffffffffffffffffffffffffffffffff16815260200190815260200160002060008473ffffffffffffffffffffffffffffffffffffffff1673ffffffffffffffffffffffffffffffffffffffff16815260200190815260200160002060006101000a81548160ff0219169083151502179055508173ffffffffffffffffffffffffffffffffffffffff168373ffffffffffffffffffffffffffffffffffffffff167f17307eab39ab6107e8899845ad3d59bd9653f200f220920489ca2b5937696c318360405161158a9190611dc1565b60405180910390a3505050565b60008373ffffffffffffffffffffffffffffffffffffffff163b1115611748578273ffffffffffffffffffffffffffffffffffffffff1663150b7a026115db6110fb565b8685856040518563ffffffff1660e01b81526004016115fd9493929190612757565b6020604051808303816000875af192505050801561163957506040513d601f19601f8201168201806040525081019061163691906127b8565b60015b6116bd573d8060008114611669576040519150601f19603f3d011682016040523d82523d6000602084013e61166e565b606091505b5060008151036116b557836040517f64a0ae920000000000000000000000000000000000000000000000000000000081526004016116ac9190611f32565b60405180910390fd5b805181602001fd5b63150b7a0260e01b7bffffffffffffffffffffffffffffffffffffffffffffffffffffffff1916817bffffffffffffffffffffffffffffffffffffffffffffffffffffffff19161461174657836040517f64a0ae9200000000000000000000000000000000000000000000000000000000815260040161173d9190611f32565b60405180910390fd5b505b50505050565b606060405180602001604052806000815250905090565b60606000600161177484611af9565b01905060008167ffffffffffffffff811115611793576117926121f9565b5b6040519080825280601f01601f1916602001820160405280156117c55781602001600182028036833780820191505090505b509050600082602001820190505b600115611828578080600190039150507f3031323334353637383961626364656600000000000000000000000000000000600a86061a8153600a858161181c5761181b6127e5565b5b049450600085036117d3575b819350505050919050565b60006002600083815260200190815260200160002060009054906101000a900473ffffffffffffffffffffffffffffffffffffffff169050919050565b80806118a95750600073ffffffffffffffffffffffffffffffffffffffff168273ffffffffffffffffffffffffffffffffffffffff1614155b156119dd5760006118b984611036565b9050600073ffffffffffffffffffffffffffffffffffffffff168373ffffffffffffffffffffffffffffffffffffffff161415801561192457508273ffffffffffffffffffffffffffffffffffffffff168173ffffffffffffffffffffffffffffffffffffffff1614155b801561193757506119358184610ece565b155b1561197957826040517fa9fbf51f0000000000000000000000000000000000000000000000000000000081526004016119709190611f32565b60405180910390fd5b81156119db57838573ffffffffffffffffffffffffffffffffffffffff168273ffffffffffffffffffffffffffffffffffffffff167f8c5be1e5ebec7d5bd14f71427d1e84f3dd0314c0f7b2291e5b200ac8c7c3b92560405160405180910390a45b505b836004600085815260200190815260200160002060006101000a81548173ffffffffffffffffffffffffffffffffffffffff021916908373ffffffffffffffffffffffffffffffffffffffff16021790555050505050565b611a40838383611c4c565b611af457600073ffffffffffffffffffffffffffffffffffffffff168373ffffffffffffffffffffffffffffffffffffffff1603611ab557806040517f7e273289000000000000000000000000000000000000000000000000000000008152600401611aac9190612128565b60405180910390fd5b81816040517f177e802f000000000000000000000000000000000000000000000000000000008152600401611aeb929190612814565b60405180910390fd5b505050565b600080600090507a184f03e93ff9f4daa797ed6e38ed64bf6a1f0100000000000000008310611b57577a184f03e93ff9f4daa797ed6e38ed64bf6a1f0100000000000000008381611b4d57611b4c6127e5565b5b0492506040810190505b6d04ee2d6d415b85acef81000000008310611b94576d04ee2d6d415b85acef81000000008381611b8a57611b896127e5565b5b0492506020810190505b662386f26fc100008310611bc357662386f26fc100008381611bb957611bb86127e5565b5b0492506010810190505b6305f5e1008310611bec576305f5e1008381611be257611be16127e5565b5b0492506008810190505b6127108310611c11576127108381611c0757611c066127e5565b5b0492506004810190505b60648310611c345760648381611c2a57611c296127e5565b5b0492506002810190505b600a8310611c43576001810190505b80915050919050565b60008073ffffffffffffffffffffffffffffffffffffffff168373ffffffffffffffffffffffffffffffffffffffff1614158015611d0457508273ffffffffffffffffffffffffffffffffffffffff168473ffffffffffffffffffffffffffffffffffffffff161480611cc55750611cc48484610ece565b5b80611d0357508273ffffffffffffffffffffffffffffffffffffffff16611ceb836110be565b73ffffffffffffffffffffffffffffffffffffffff16145b5b90509392505050565b6000604051905090565b600080fd5b600080fd5b60007fffffffff0000000000000000000000000000000000000000000000000000000082169050919050565b611d5681611d21565b8114611d6157600080fd5b50565b600081359050611d7381611d4d565b92915050565b600060208284031215611d8f57611d8e611d17565b5b6000611d9d84828501611d64565b91505092915050565b60008115159050919050565b611dbb81611da6565b82525050565b6000602082019050611dd66000830184611db2565b92915050565b600081519050919050565b600082825260208201905092915050565b60005b83811015611e16578082015181840152602081019050611dfb565b60008484015250505050565b6000601f19601f8301169050919050565b6000611e3e82611ddc565b611e488185611de7565b9350611e58818560208601611df8565b611e6181611e22565b840191505092915050565b60006020820190508181036000830152611e868184611e33565b905092915050565b6000819050919050565b611ea181611e8e565b8114611eac57600080fd5b50565b600081359050611ebe81611e98565b92915050565b600060208284031215611eda57611ed9611d17565b5b6000611ee884828501611eaf565b91505092915050565b600073ffffffffffffffffffffffffffffffffffffffff82169050919050565b6000611f1c82611ef1565b9050919050565b611f2c81611f11565b82525050565b6000602082019050611f476000830184611f23565b92915050565b611f5681611f11565b8114611f6157600080fd5b50565b600081359050611f7381611f4d565b92915050565b60008060408385031215611f9057611f8f611d17565b5b6000611f9e85828601611f64565b9250506020611faf85828601611eaf565b9150509250929050565b600080600060608486031215611fd257611fd1611d17565b5b6000611fe086828701611f64565b9350506020611ff186828701611f64565b925050604061200286828701611eaf565b9150509250925092565b60006020828403121561202257612021611d17565b5b600061203084828501611f64565b91505092915050565b600081519050919050565b600082825260208201905092915050565b6000819050602082019050919050565b61206e81611e8e565b82525050565b60006120808383612065565b60208301905092915050565b6000602082019050919050565b60006120a482612039565b6120ae8185612044565b93506120b983612055565b8060005b838110156120ea5781516120d18882612074565b97506120dc8361208c565b9250506001810190506120bd565b5085935050505092915050565b600060208201905081810360008301526121118184612099565b905092915050565b61212281611e8e565b82525050565b600060208201905061213d6000830184612119565b92915050565b6000806040838503121561215a57612159611d17565b5b600061216885828601611eaf565b925050602061217985828601611f64565b9150509250929050565b61218c81611da6565b811461219757600080fd5b50565b6000813590506121a981612183565b92915050565b600080604083850312156121c6576121c5611d17565b5b60006121d485828601611f64565b92505060206121e58582860161219a565b9150509250929050565b600080fd5b600080fd5b7f4e487b7100000000000000000000000000000000000000000000000000000000600052604160045260246000fd5b61223182611e22565b810181811067ffffffffffffffff821117156122505761224f6121f9565b5b80604052505050565b6000612263611d0d565b905061226f8282612228565b919050565b600067ffffffffffffffff82111561228f5761228e6121f9565b5b61229882611e22565b9050602081019050919050565b82818337600083830152505050565b60006122c76122c284612274565b612259565b9050828152602081018484840111156122e3576122e26121f4565b5b6122ee8482856122a5565b509392505050565b600082601f83011261230b5761230a6121ef565b5b813561231b8482602086016122b4565b91505092915050565b6000806000806080858703121561233e5761233d611d17565b5b600061234c87828801611f64565b945050602061235d87828801611f64565b935050604061236e87828801611eaf565b925050606085013567ffffffffffffffff81111561238f5761238e611d1c565b5b61239b878288016122f6565b91505092959194509250565b600067ffffffffffffffff82169050919050565b6123c4816123a7565b81146123cf57600080fd5b50565b6000813590506123e1816123bb565b92915050565b600080600060608486031215612400576123ff611d17565b5b600061240e86828701611eaf565b935050602061241f86828701611f64565b9250506040612430868287016123d2565b9150509250925092565b6000806040838503121561245157612450611d17565b5b600061245f85828601611f64565b925050602061247085828601611f64565b9150509250929050565b600060608201905061248f6000830186611f23565b61249c6020830185611f23565b6124a96040830184612119565b949350505050565b7f4e487b7100000000000000000000000000000000000000000000000000000000600052602260045260246000fd5b600060028204905060018216806124f857607f821691505b60208210810361250b5761250a6124b1565b5b50919050565b60006060820190506125266000830186611f23565b6125336020830185612119565b6125406040830184611f23565b949350505050565b7f4e487b7100000000000000000000000000000000000000000000000000000000600052601160045260246000fd5b600061258282611e8e565b91507fffffffffffffffffffffffffffffffffffffffffffffffffffffffffffffffff82036125b4576125b3612548565b5b600182019050919050565b7f4e487b7100000000000000000000000000000000000000000000000000000000600052603260045260246000fd5b600081905092915050565b600061260482611ddc565b61260e81856125ee565b935061261e818560208601611df8565b80840191505092915050565b600061263682856125f9565b915061264282846125f9565b91508190509392505050565b600061265982611e8e565b915061266483611e8e565b925082820190508082111561267c5761267b612548565b5b92915050565b6000819050919050565b60006126a76126a261269d846123a7565b612682565b611e8e565b9050919050565b6126b78161268c565b82525050565b60006080820190506126d26000830187612119565b6126df6020830186611f23565b6126ec6040830185612119565b6126f960608301846126ae565b95945050505050565b600081519050919050565b600082825260208201905092915050565b600061272982612702565b612733818561270d565b9350612743818560208601611df8565b61274c81611e22565b840191505092915050565b600060808201905061276c6000830187611f23565b6127796020830186611f23565b6127866040830185612119565b8181036060830152612798818461271e565b905095945050505050565b6000815190506127b281611d4d565b92915050565b6000602082840312156127ce576127cd611d17565b5b60006127dc848285016127a3565b91505092915050565b7f4e487b7100000000000000000000000000000000000000000000000000000000600052601260045260246000fd5b60006040820190506128296000830185611f23565b6128366020830184612119565b939250505056fea2646970667358221220d123796b22f057645f6660ab7b00f34b395dd78e65265fbdfacf0b6fa48ef7a264736f6c63430008140033",
  "linkReferences": {},
  "deployedLinkReferences": {}
}